:020000040800F2
:1000000038050020ED010008AD1B0008D5140008DC
:10001000A91B000811030008F13C000800000000C3
:10002000000000000000000000000000BD3B0008D0
:100030001503000800000000B11B0008C13B0008C8
:10004000070200080702000807020008070200086C
:10005000070200080702000807020008070200085C
:10006000070200080702000807020008070200084C
:10007000070200080702000807020008070200083C
:10008000070200080000000007020008070200083D
:10009000070200080702000807020008070200081C
:1000A000070200080702000807020008070200080C
:1000B00007020008070200080702000807020008FC
:1000C00007020008070200080702000807020008EC
:1000D00007020008070200080702000807020008DC
:1000E00007020008070200080702000807020008CC
:1000F00007020008070200080702000800000000CD
:1001000000000000070200080000000007020008CD
:100110000702000800000000D93B000807020008A1
:10012000070200080702000807020008070200088B
:10013000070200080000000000000000070200089D
:10014000070200080702000800000000000000008D
:10015000000000000000000000000000000000009F
:10016000000000000000000000000000070200087E
:10017000070200080000000000000000000000006E
:10018000000000000702000800000000000000005E
:10019000000000000000000000000000000000005F
:1001A000000000000000000007020008070200082D
:1001B000070200080702000807020008000000000C
:1001C000000000000702000800000000000000001E
:1001D0000702000807020008DFF80CD000F040F822
:1001E0000048004755400008380500200648804771
:1001F00006480047FEE7FEE7FEE7FEE7FEE7FEE70C
:10020000FEE7FEE7FEE7FEE7C53B0008D901000870
:10021000D2B201E000F8012B491EFBD27047002248
:10022000F6E710B513460A4604461946FFF7F0FFF5
:10023000204610BD30B50B46014600202022012487
:1002400009E021FA02F59D4205D303FA02F5491BA4
:1002500004FA02F52844151EA2F10102F1DC30BDBA
:10026000064C074D06E0E06840F0010394E8070003
:1002700098471034AC42F6D3FFF7B2FFFC560008A3
:100280001C57000840F22C10C2F200000178013126
:10029000017000F08DB8000040F22C10C2F2000096
:1002A00001780139017000F083B8000040F22C1091
:1002B000C2F2000041780131417000F079B80000CD
:1002C00040F22C10C2F2000041780139417000F078
:1002D0006FB8000040F22C10C2F2000081780131AA
:1002E000817000F065B8000040F22C10C2F20000EE
:1002F00081780139817000F05BB8000040F22C1069
:10030000C2F20000C1780131C17000F051B80000A4
:10031000FEE7000070470000EFF3108072B600BFE8
:10032000FEE7000010B586B01BA1182001F0D4F83C
:1003300045F298616C46C0F600012046002203F0A9
:10034000F1FE3020214601F0C7F845F2B161C0F658
:1003500000012046002203F0E5FE4820214601F07E
:10036000BBF845F2CA61C0F600012046002203F046
:10037000D9FE6020214601F0AFF845F2E361C0F6F6
:1003800000012046002203F0CDFE7820214601F036
:10039000A3F806B010BD00BF2020202048656C6C7B
:1003A0006F20576F726C6421202020200000000015
:1003B000B0B540F2C0040278C2F2000445F2986180
:1003C0000546C0F60001204603F0ACFE3020214671
:1003D00001F082F86A7845F2B161C0F6000120466A
:1003E00003F0A0FE4820214601F076F8AA7845F2F5
:1003F000CA61C0F60001204603F094FE6020214649
:1004000001F06AF8EA7845F2E361C0F6000120469F
:1004100003F088FE78202146BDE8B04001F05CB8CA
:10042000B0B5044600F0F2F8054640F20000C2F212
:1004300000004068611C18BF044400BF00F0E6F8EB
:10044000401BA042FAD3B0BD2DE9F04F82B00D6839
:10045000002D00F0CB8041F2004400F13847C4F693
:10046000000406224FEAB726A04208BF0522052E47
:1004700038BF4FEAB722002401274FF0000E0026B4
:10048000009209E00D68013635FA06F20EF1040E0D
:1004900004F1020400F0AA8007FA06FB15EA0B0833
:1004A000F0D0D1F804A003220AF0030CACF101054E
:1004B000A240012D6FEA020910D88268CD6802EAD5
:1004C0000902A5402A4382604268CAF3001522EA65
:1004D0000B02B5402A43426006E000BFBCF1030FA7
:1004E00002D14FF0030C21E0C2688D6802EA0902D4
:1004F000A5402A43BCF1020FC26017D16FF003027E
:1005000002EA560202440EF01C030F25D2F820C066
:1005100005FA03FA0D692CEA0A0C05FA03F343EA1B
:100520000C031362D1F804A00AF0030C02680CFA61
:1005300004F302EA09021A431AF4403F0260A1D010
:1005400041F26003C4F202031A6840F2004942F02B
:1005500001021A601A68C4F2010902F00102019254
:10056000019A26F003024FF6084A4A44CFF6FF7A72
:1005700052F80AC00EF00C050F23009FAB402CEA86
:10058000030307FA05F52B4342F80A30D9F808C0EF
:100590004B684CEA0805DA0258BF2CEA080540F21D
:1005A0000C4CC9F80850C4F2010CDCF800209F0282
:1005B00042EA080558BF22EA0805CCF80050D9F8ED
:1005C00004209D0342EA080758BF22EA0807C9F839
:1005D0000470D9F80020DB0342EA080758BF22EA7A
:1005E0000807C9F8007001274CE700BF02B0BDE85A
:1005F000F08F00000069084018BF0120704700001C
:100600001823002A08BF2823C150704740F2301039
:10061000C2F200000068704740F2000040F2301162
:10062000C2F20000C2F2000140680A68104408608B
:100630007047000080B5032000F08CF80F2000F018
:1006400009F800281CBF012080BD00F029F8002017
:1006500080BD000070B540F20006C2F2000671686D
:10066000E1B1044640F20C00C2F200004FF47A728D
:100670000068B2FBF1F1B0FBF1F000F0FBFC0F2CD5
:100680004FF0010508D838B94FF0FF30214600225D
:10069000002500F033F83460284670BD012070BD9D
:1006A00082B041F25800C4F20200816841F00101B9
:1006B0008160816801F0010101910199016841F0B7
:1006C00080510160006800F080500090009802B0F6
:1006D00000F0E4B8002848BF7047C1B200F01F0026
:1006E000012202FA00F04EF20012CEF2000242EABB
:1006F000D10121F0030108607047000010B54EF6EB
:100700000C5CCEF2000CDCF80030C3F3022E8EF04D
:100710000704042C28BF0424BEF103034FF0FF3E5E
:100720000EFA04F438BF0023A14399400EFA03F3F4
:100730009A43114300F00F0200F160430901043AAB
:1007400003F564436244002848BF02F10C031970AA
:1007500010BD00004EF60C51CEF200010A684FF6B3
:10076000FF031A4060F30A2242F0806040F0FD70FF
:1007700008607047B0F5007F42D0002840F08080CC
:1007800047F21400C4F2000050F8141CC26E01F4C9
:10079000C06122F48072B1F5806FC2662ED150F82C
:1007A000141C012262F34A2140F8141C40F20C018F
:1007B000C2F200010968322251434DF68362C4F24D
:1007C0001B32A1FB0212910C0268520511D54A1C82
:1007D0000FD0026852050CD559B10268520508D5F0
:1007E000012906D00268520503D50229A1F10401AE
:1007F000EAD10068400544BF0320704700207047DD
:1008000047F21400C4F2000050F8141CC26E01F448
:10081000C06142F48072B1F5806FC266EED150F8CB
:10082000141C012262F34A2140F8141C40F20C010E
:10083000C2F200010968322251434DF68362C4F2CC
:100840001B32A1FB0212910C0268520511D54A1C01
:100850000FD0026852050CD559B10268520508D56F
:10086000012906D00268520503D50229A1F104012D
:10087000EAD10068400544BF03207047BEE700BFCF
:1008800047F21400C4F2000050F8141C022262F374
:100890004A2140F8141C00207047000047F208006D
:1008A000C4F20000016841F480410160704700001B
:1008B0002DE9F04700286DD042F2000AC4F2020A86
:1008C0000446DAF800000D4600F00F0088420CD212
:1008D000DAF8000020F00F002843CAF80000DAF828
:1008E000000000F00F00A84254D1216841F208082E
:1008F000C807C4F2020803D1880740F1D880BDE0E0
:10090000606802283AD0032840D158F8082C920198
:1009100040D5D8F80420D8F8043042F20046C3F39A
:10092000031302F00302D8F804700133C0F2F40696
:10093000032A04BF43F20066C0F26E16B6FBF3F260
:10094000D8F80430C7F306277A43C3F3416302277C
:1009500007EB4303B2FBF3F24BF20043C0F2C44394
:100960009A4261D9D8F8002012F0F00F51D08907CF
:100970005AD5A168002957D14BE000BF58F8081C90
:1009800089035CBF0120BDE8F08707E058F8081C28
:10099000490503D40120BDE8F08700BFD8F8001056
:1009A00001F00C0104293FD0D8F8001001F00C012F
:1009B000082939D0D8F8001001F00C010C2933D1E6
:1009C000D8F80410D8F8042042F20047C2F303120A
:1009D00001F00301D8F804300132C0F2F407032912
:1009E00004BF43F20067C0F26E17B7FBF2F1D8F80C
:1009F0000420C3F306235943C2F34162022303EBED
:100A00004202B1FBF2F14BF20042C0F2C442914209
:100A10000AD9D8F80010082262F307114FF0010933
:100A2000C8F8001002E000BF4FF00009D8F800102D
:100A300021F003010843C8F80000FFF7E7FD064670
:100A400041F28837D8F80000616800F00C00B0EB84
:100A5000810F07D0FFF7DAFD801BB842F2D90320DF
:100A6000BDE8F0872168880708D4B9F1000F1ED0CF
:100A7000D8F8000020F0F00017E000BF480705D5C7
:100A8000D8F8000040F4E060C8F80000080706D578
:100A9000D8F80000072262F30D20C8F80000D8F84B
:100AA0000000A26820F0F0001043C8F80000DAF857
:100AB000000000F00F00A8421BD9DAF8000020F077
:100AC0000F002843CAF80000FFF7A0FD064641F2D8
:100AD000883700BFDAF8000000F00F00A84207D006
:100AE000FFF794FD801BB842F4D90320BDE8F087DE
:100AF0002168480707D5D8F80000E26820F4E060D4
:100B00001043C8F80000080708D5D8F8000021698C
:100B100020F4605040EAC100C8F80000D8F8000096
:100B200042F20041C0F2F40100F00C000428084633
:100B30002DD0D8F8000000F00C00082843F2006027
:100B4000C0F26E1023D0D8F8002002F00C020C2A5C
:100B50001CD1D8F80420D8F8043002F00302C3F303
:100B60000313D8F804700133032A08BF0146B1FB10
:100B7000F3F0D8F80410C7F30627C1F3416102224D
:100B8000784302EB4101B0FBF1F000E00020D8F81F
:100B9000001044F2B842C1F30311C0F60002515CE8
:100BA00040F20C0201F01F0120FA01F140F20000B6
:100BB000C2F200000068C2F200021160BDE8F04716
:100BC000FFF748BD2DE9F04182B0002800F0068112
:100BD0000446007841F20006C007C4F2020655D16F
:100BE0002078800774D42078000700F1978020785F
:100BF000400700F1B7802078800600F10781E069A6
:100C0000002840D0B16801F00C010C2940F0568159
:100C1000012800F0E380F068216A00F003028A42B4
:100C200040F0DC80626A6FF00F0300F0F00103EB2C
:100C30000212914240F0D280A16A00F4FE42B2EB6F
:100C4000012F40F0CB80E16A00F07842B2EBC16F37
:100C500040F0C480226B0023CFF6E07303EA025217
:100C600000F4C001A2F50012914240F0B780616B20
:100C70004FF07E4202EA016100F0C06001F17E4166
:100C8000884240F0AB800020F1E100BFB06800F086
:100C90000C01F06808295BD0032281F00C0122EAE4
:100CA00000000844B0FA80F0400951D16068B0F506
:100CB000803F07D0B0F5A02F40F0D680306840F4D8
:100CC00080203060306840F480303060D7E000BF72
:100CD000B068F16800F00C00042869D001F003014D
:100CE00080F00C0081F002010844B0FA80F0400965
:100CF0005ED1E1683068002900F0CE8040F4807059
:100D00003060FFF783FC05463068400500F1EC8059
:100D1000FFF77CFC401B0228F6D920E16169D6F878
:100D20009400002900F08C8040F00100C6F8940087
:100D3000FFF76CFC054600BFD6F8940080073FF52E
:100D400056AFFFF763FC401B0228F5D907E100BF4F
:100D5000306880037FF544AF606800287FF440AFBF
:100D60003CE000BFB06D10F0805808D1B06D40F08D
:100D70008050B065B06D00F080500190019847F24E
:100D80000007C4F200073868C0052BD4386840F467
:100D900080703860FFF73AFC054600BF3868C00530
:100DA00020D4FFF733FC401B0228F7D9D7E000BF5F
:100DB0003068400501D5E06880B17068216920F095
:100DC000FE4040EA0160706040F20000C2F20000A4
:100DD0000068FFF73FFC00283FF405AF012002B098
:100DE000BDE8F081A068012808D0052840F09A806D
:100DF000D6F8900040F00400C6F89000D6F89000B5
:100E000040F00100C6F890009AE000BFA169D6F852
:100E10009800002970D040F00100C6F89800FFF754
:100E2000F5FB0546D6F8980080073FF5E8AEFFF7DA
:100E3000EDFB401B02284FF00300F3D917E100BF80
:100E400020F00100C6F89400FFF7E0FB054600BF64
:100E5000D6F8940080077FF5CAAEFFF7D7FB401B9A
:100E60000228F5D97BE000BF3168002821F48031E9
:100E70003160316821F48021316000F08F80FFF70C
:100E8000C5FB0546306880033FF5AAAEFFF7BEFB01
:100E9000401B6428F6D962E020F480703060FFF7D0
:100EA000B5FB0546306840057FF59DAEFFF7AEFB0C
:100EB000401B02284FF00300F4D9D8E03168022823
:100EC00021F0807131604FD1FFF7A0FB054600BFD4
:100ED0003068800140F18E80FFF798FB401B0228AC
:100EE0004FF00300F4D9C2E07068216920F0FE40A1
:100EF00040EA0160706076E620F00100C6F89800D4
:100F0000FFF784FB054600BFD6F8980080077FF501
:100F100076AEFFF77BFB401B02284FF00300F3D9AE
:100F2000A5E000BFD6F89010002821F00101C6F816
:100F30009010D6F8901021F00401C6F890103DD022
:100F4000FFF764FB054641F2883700BFD6F89000F2
:100F5000800745D4FFF75AFB401BB842F6D903205F
:100F600002B0BDE8F08100BFF0684FF6FF7120F0DD
:100F70000300F060F068CFF6EE610840F060FFF724
:100F800045FB0446306880017FF57DAEFFF73EFBF0
:100F9000001B02284FF00300F4D968E0FFF736FB8E
:100FA000054600BF306880037FF51AAEFFF72EFBC1
:100FB000401B64284FF00300F4D958E0FFF726FBEC
:100FC000054641F2883700BFD6F89000800707D564
:100FD000FFF71CFB401BB8424FF00300F4D946E07A
:100FE000B8F1000F7FF407AEB06D20F08050B0650F
:100FF00001E600BFF06848F20C01C0F29F1104F155
:10100000200700EA010C8ECF6FF00F00D4E90C54DA
:1010100000EB02100022CFF6E07241EA0C0102EA76
:1010200005520843A2F500124FF07E4540EA032026
:1010300005EA0465104305F17E4540EAC760284390
:10104000F060306840F080703060F06840F0807090
:10105000F060FFF7DBFA0446306880013FF513AE1D
:10106000FFF7D4FA001B02284FF00300F4D902B0B6
:10107000BDE8F081411E0020B0EB116F1CBF0120C4
:1010800070474EF21002CEF2000251604EF623512C
:10109000CEF20001F0230B700721906011607047C1
:1010A0007047000070470000704700007047000064
:1010B000704700007047000070B590F83C20012A8E
:1010C0004FF0020247D080F83D20026843F2004C06
:1010D00054689368C4F2010C42F6004E6245C4F2B3
:1010E000010E01D0724503D14D6824F470042C43E5
:1010F0004FF68F75CFF6FF550E682C4042F6FF3540
:10110000C4F201053443AA4254600FDCB2F1804FAF
:1011100016D040F20046C4F20006B24210D040F6AB
:101120000006C4F20006B2420AD00EE0724507D0B3
:1011300044F20006C4F20106B24201D0624504D175
:10114000896823F08003194391600121002280F80F
:101150003D1080F83C20104670BD00007047000034
:10116000002804BF0120704710B5044690F83D00E8
:1011700028B9002084F83C00204600F023F8022023
:1011800084F83D002068211D02F02CFD012084F828
:10119000480084F83E0084F83F0084F8400084F85A
:1011A000410084F8420084F8430084F8440084F845
:1011B000450084F8460084F8470084F83D0000208C
:1011C00010BD000080B582B0006841F20001C4F299
:1011D000000188421CBF02B080BD41F25800C4F239
:1011E00002000168002241F0100101600068002146
:1011F00000F01000019001983620FFF77FFA3620AA
:1012000002B0BDE88040FFF765BA000090F83D10DD
:1012100001291CBF01207047022180F83D100168A0
:1012200042F6FF32C868C4F20102914240F0010068
:10123000C8600FDCB1F1804F1ED040F20040C4F214
:101240000000814218D040F60000C4F20000814244
:1012500012D01EE042F60040C4F2010081420BD0E1
:1012600044F20000C4F20100814205D043F2004084
:10127000C4F2010081420CD188680722C0F2010249
:101280000240062A4FF0000008D0B2F5803F08BFA8
:101290007047086840F001000860002070470000B7
:1012A0007047000010B5016804460869800744BF14
:1012B000C8685FEA807061D40869400744BFC868A5
:1012C0005FEA407066D40869000744BFC8685FEAF7
:1012D00000706DD40869C00644BFC8685FEAC0608A
:1012E00072D40869C0071CBFC8685FEAC07079D1B2
:1012F0000869000644BFC8685FEA00607AD40869DC
:10130000C00544BFC8685FEA006000F17B800869DF
:10131000400644BFC8685FEA406000F17B8008690E
:10132000800644BFC8685FEA806000F17B8008697E
:10133000C00244BFC8685FEAC02000F17B80086932
:10134000800244BFC8685FEA802000F17B800869A2
:10135000400244BFC8685FEA402000F17B80086912
:10136000000246BFC8685FEA002010BD6FF40002AB
:1013700020460A61BDE81040FFF7F0BE6FF00200A2
:10138000086101202077886980076BD02046FFF72D
:1013900087FF6DE06FF00400086102202077886904
:1013A00010F4407F68D02046FFF77AFF6AE000BF64
:1013B0006FF00800086104202077C869800765D0B5
:1013C0002046FFF76DFF67E06FF01000086108200E
:1013D0002077C86910F4407F62D02046FFF760FF95
:1013E00064E000BF6FF001000861204600F066F87D
:1013F00021687DE76FF0800008612046FFF752FE0C
:1014000021687CE76FF4807008612046FFF748FE92
:1014100021687CE76FF040000861204600F058F832
:1014200021687CE76FF0200008612046FFF73CFE52
:1014300021687CE76FF4801008612046FFF738FED2
:1014400021687CE76FF4001008612046FFF72EFE4C
:1014500021687CE76FF4800008612046FFF72AFED0
:1014600021687CE7204600F025F8204600F024F8AB
:101470002168002020771FE7204600F01BF8204657
:1014800000F01AF82168002020771CE7204600F0C1
:1014900011F8204600F010F821680020207719E7A5
:1014A000204600F007F8204600F006F821680020EA
:1014B000207716E7704700007047000040F2E00117
:1014C000C2F20001884218BF704702F0C7BC00009A
:1014D00070470000FEE700002DE9F0410A78FAB1FC
:1014E00044F2C84804464D1C002740F23F16C0F69F
:1014F000000800BFA2F12000C1B2490051FA80F0FB
:1015000008EB0012B1B2204600F00CF8EA5D002AA8
:1015100008BFBDE8F081103E132F07F10107E9D3A2
:10152000BDE8F0812DE9F04740F21843C4F600030E
:101530001F694FF0200C47F400771F611F694FF0BF
:10154000210E47F480771F611F6840F2080947F0B9
:1015500020071F60C3F8FCC31F6940F2D80A47F098
:1015600020071F6100BF00BF00BF1F684FF02208A7
:1015700047F020071F601F68C2F2000947F4807718
:101580001F60C3F8FC031F69C2F2000A47F020077E
:101590001F6100BF00BF00BF1F6847F020071F602A
:1015A0001F6847F480771F601F6947F400771F6149
:1015B0001F6947F480771F611F6847F020071F608D
:1015C000C3F8FCE31C6944F020041C6100BF00BFA9
:1015D00000BF1C6844F020041C601C6844F4807444
:1015E0001C60C3F8FC131C6944F020041C6100BF9C
:1015F00000BF00BF1C6844F020041C601C6844F459
:1016000080741C60002400BF1D6945F400751D61D5
:101610001D6945F480751D611D6845F020051D603C
:10162000C3F8FC831D6945F020051D6100BF00BFA4
:1016300000BF1D6845F020051D601D6845F48075DC
:101640001D6000BF00BF00BF1D6845F400751D6030
:10165000002500BF32F81460EE40F607564608BF7A
:101660004E4636881F6947F400771F611F6847F4AC
:1016700080771F601F6847F020071F60C3F8FC6376
:101680001E6946F020061E6100BF00BF00BF1E6835
:1016900046F020061E601E6846F480761E6000BF7D
:1016A00000BF00BF1E6846F400761E6032F814606A
:1016B000EE40B607564658BF4E4636881F6947F477
:1016C00000771F611F6847F480771F601F6847F02D
:1016D00020071F60C3F8FC631E6946F020061E61E8
:1016E00000BF00BF00BF1E6846F020061E601E68D7
:1016F00046F480761E6000BF00BF00BF1E6846F43F
:1017000000761E6032F81460EE407607564658BFE9
:101710004E4636881F6947F400771F611F6847F4FB
:1017200080771F601F6847F020071F60C3F8FC63C5
:101730001E6946F020061E6100BF00BF00BF1E6884
:1017400046F020061E601E6846F480761E6000BFCC
:1017500000BF00BF1E6846F400761E6032F81460B9
:10176000EE403607564658BF4E4636881F69043548
:1017700047F400771F611F68102D47F480771F60C2
:101780001F6847F020071F60C3F8FC631E6946F01E
:1017900020061E6100BF00BF00BF1E6846F0200685
:1017A0001E601E6846F480761E6000BF00BF00BF4A
:1017B0001E6846F400761E607FF44CAF1D69013050
:1017C00045F400751D611D69013445F480751D6186
:1017D0001D68182C45F020051D60C3F8FCC31D6969
:1017E00045F020051D6100BF00BF00BF1D6845F02A
:1017F00020051D601D6845F480751D60C5B2C3F8E5
:10180000FC531D6945F020051D6100BF00BF00BFEE
:101810001D6845F020051D601D6845F480751D603C
:101820001D6945F400751D611D6945F480751D61D4
:101830001D6845F020051D60C3F8FCE31D6945F0F7
:1018400020051D6100BF00BF00BF1D6845F02005D9
:101850001D601D6845F480751D60C3F8FC131D698B
:1018600045F020051D6100BF00BF00BF1D6845F0A9
:1018700020051D601D6845F480751D6008BFBDE82A
:10188000F087C1E62DE9F04F8BB0002641F24C0005
:101890000596C4F20200016840F2184541F00401C7
:1018A00001600168C4F6000501F004010691069983
:1018B000016801AC41F001010160016840F61409C2
:1018C00001F00101069106990168C4F6000941F092
:1018D000020101600068214600F0020006900698AF
:1018E0004FF44870019001200290A5F118000127E3
:1018F000CDE90366FEF7A8FD4FF48070CDE901073E
:101900004FF090402146CDE90366FEF79DFD4FF66E
:10191000FF7005F57A7406904FF0030806A920467B
:101920000A964FF6FF7B0797CDE90868FEF78CFD16
:101930004FF6004ACFF6FF7A55F80A0006A940F4A0
:10194000807045F80A0028684FF6FF7740F4087069
:101950002860286940F400702861286940F480708C
:101960002861286840F020002860C9F800602869D4
:1019700040F02000286100BF00BF00BF286840F091
:1019800020002860286840F48070286020460A966D
:10199000CDF818B0CDF82480CDE90766FEF754FDE8
:1019A0004FF6104BCFF6FF7B55F80B0007A940F41C
:1019B000807045F80B0000BF00BF00BFD5F8F8935A
:1019C00055F80A0040F4807045F80A00012081E8CB
:1019D000410106A920460A960697FEF735FD2868BC
:1019E00048F2302140F40070286040F2DA00C2F280
:1019F0000000A0F800900088884203D100F0DAF8D7
:101A000002E000BF00F04AFE2869002640F40070A2
:101A1000286128694FF6FF7840F4807028612868B3
:101A20004FF0030940F02000286040F61400C4F68F
:101A300000000660286906A940F02000286100BF68
:101A400000BF00BF286840F020002860286840F4EC
:101A50008070286020460A96CDE90686CDE908699F
:101A6000FEF7F2FC55F80B0007A940F4807045F82A
:101A70000B0000BF00BF00BFD5F8F87355F80A008F
:101A800040F4807045F80A00012081E8410206A96F
:101A900020460A96CDF81880FEF7D6FC286840F458
:101AA0000070286040F2DA00C2F2000007800BB03C
:101AB000BDE8F08FF0B587B0002541F24C00CDE9CC
:101AC0000555C4F202000168002241F020010160C6
:101AD0000168062601F0200101910199016841F099
:101AE00001010160016801F00101019101990168A2
:101AF00041F0020101600068062100F0020001903F
:101B000001984FF09040FEF77BFD02AC01274FF0AB
:101B100090402146CDE902750495FEF795FC4FF003
:101B200090402146CDE90267CDE90455FEF78CFCD3
:101B30000720CDE9020540F20040C4F6000021462E
:101B40000495FEF781FC07B0F0BD000010B584B02D
:101B500040F2E00041F200010024C2F20000C4F2B1
:101B6000000141F287330294A92280E81600C36085
:101B70008461FFF7F5FA002818BFFEF7CDFB40F2AD
:101B8000E000C2F2000001A901940394FFF794FA67
:101B9000002818BFFEF7C0FB40F2E000C2F20000D0
:101BA000FFF734FB04B010BDFEE70000FEE70000C5
:101BB0007047000040F21840C4F60000016900229E
:101BC00041F40071016101694FF0030C41F480712F
:101BD0000161016841F020010160C0F8FC23016946
:101BE00041F02001016100BF00BF00BF016841F06A
:101BF00020010160016841F4807101600121C0F899
:101C0000FC13036943F02003036100BF00BF00BF62
:101C1000036843F020030360036843F480730360A8
:101C2000036943F400730361036943F48073036140
:101C3000036843F020030360C0F8FC13036943F01A
:101C40002003036100BF00BF00BF036843F020030F
:101C50000360036843F480730360C0F8FC230269E7
:101C600042F02002026100BF00BF00BF026842F0E4
:101C700020020260026842F480720260026942F44B
:101C800000720261026942F480720261026842F0ED
:101C9000200202601022C0F8FC23026942F02002F8
:101CA000026100BF00BF00BF026842F02002026074
:101CB000026842F48072026041F29072C0F8FC2324
:101CC000026942F02002026100BF00BF00BF02684B
:101CD00042F020020260026842F4807202600269EF
:101CE00042F400720261026942F480720261026889
:101CF00042F0200202606022C0F8FC23026942F038
:101D00002002026100BF00BF00BF026842F0200253
:101D10000260026842F4807202604FF41C52C0F804
:101D2000FC23026942F02002026100BF00BF00BF35
:101D3000026842F020020260026842F4807202608F
:101D4000026942F400720261026942F48072026127
:101D5000026842F0200202606122C0F8FC2302699E
:101D600042F02002026100BF00BF00BF026842F0E3
:101D700020020260026842F480720260C0F8FC1324
:101D8000016941F02001016100BF00BF00BF01688F
:101D900041F020010160016841F480710160016936
:101DA00041F400710161016941F4807101610168D0
:101DB00041F0200101604621C0F8FC13016941F0A7
:101DC0002001016100BF00BF00BF016841F0200198
:101DD0000160016841F4807101600221C0F8FC13C8
:101DE000026942F02002026100BF00BF00BF02682A
:101DF00042F020020260026842F4807202600269CE
:101E000042F400720261026942F480720261026867
:101E100042F0200202601322C0F8FC23026942F063
:101E20002002026100BF00BF00BF026842F0200232
:101E30000260026842F48072026048F21002C0F848
:101E4000FC23026942F02002026100BF00BF00BF14
:101E5000026842F020020260026842F4807202606E
:101E6000026942F400720261026942F48072026106
:101E7000026842F0200202601222C0F8FC230269CC
:101E800042F02002026100BF00BF00BF026842F0C2
:101E900020020260026842F48072026048F2FE0290
:101EA000C0F8FC23026942F02002026100BF00BFBB
:101EB00000BF026842F020020260026842F48072B1
:101EC0000260026942F400720261026942F48072A7
:101ED0000261026842F020020260C0F8FC1301694E
:101EE00041F02001016100BF00BF00BF016841F067
:101EF00020010160016841F4807101604FF4A0612C
:101F0000C0F8FC13016941F02001016100BF00BF6E
:101F100000BF016841F020010160016841F4807157
:101F20000160016941F400710161016941F480714E
:101F30000161016841F020010160C0F8FCC3026941
:101F400042F02002026100BF00BF00BF026842F001
:101F500020020260026842F48072026041F23002A4
:101F6000C0F8FC23026942F02002026100BF00BFFA
:101F700000BF026842F020020260026842F48072F0
:101F80000260026942F400720261026942F48072E6
:101F90000261026842F0200202603022C0F8FC2395
:101FA000026942F02002026100BF00BF00BF026868
:101FB00042F020020260026842F48072026040F245
:101FC0000332C0F8FC23036943F02003036100BF20
:101FD00000BF00BF036843F020030360036843F4BD
:101FE00080730360036943F400730361036943F47E
:101FF00080730361036843F0200303603123C0F85A
:10200000FC33036943F02003036100BF00BF00BF3E
:10201000036843F020030360036843F480730360A4
:10202000C0F8FC23036943F02003036100BF00BF35
:1020300000BF036843F020030360036843F4807328
:102040000360036943F400730361036943F480731D
:102050000361036843F0200303603223C0F8FC33BC
:10206000036943F02003036100BF00BF00BF0368A2
:1020700043F020030360036843F480730360C0F8F7
:10208000FC23036943F02003036100BF00BF00BFCE
:10209000036843F020030360036843F48073036024
:1020A000036943F400730361036943F480730361BC
:1020B000036843F0200303603323C0F8FC33036953
:1020C00043F02003036100BF00BF00BF036843F07B
:1020D00020030360036843F4807303604FF440738C
:1020E000C0F8FC33016941F02001016100BF00BF6D
:1020F00000BF016841F020010160016841F4807176
:102100000160016941F400710161016941F480716C
:102110000161016841F0200101603421C0F8FC1325
:10212000016941F02001016100BF00BF00BF0168EB
:1021300041F020010160016841F480710160C0F844
:10214000FCC3016941F02001016100BF00BF00BF75
:10215000016841F020010160016841F48071016073
:10216000016941F400710161016941F4807101610B
:10217000016841F0200101603521C0F8FC130169BC
:1021800041F02001016100BF00BF00BF016841F0C4
:1021900020010160016841F480710160C0F8FC23F6
:1021A000016941F02001016100BF00BF00BF01686B
:1021B00041F020010160016841F480710160016912
:1021C00041F400710161016941F4807101610168AC
:1021D00041F0200101603621C0F8FC13016941F093
:1021E0002001016100BF00BF00BF016841F0200174
:1021F0000160016841F4807101601421C0F8FC1392
:10220000016941F02001016100BF00BF00BF01680A
:1022100041F020010160016841F4807101600169B1
:1022200041F400710161016941F48071016101684B
:1022300041F0200101603721C0F8FC13016941F031
:102240002001016100BF00BF00BF016841F0200113
:102250000160016841F480710160C0F8FC230169EC
:1022600041F02001016100BF00BF00BF016841F0E3
:1022700020010160016841F480710160016941F44D
:1022800000710161016941F480710161016841F0EF
:10229000200101603821C0F8FC13016941F02001E0
:1022A000016100BF00BF00BF016841F02001016073
:1022B000016841F480710160C0F8FC23016941F0BC
:1022C0002001016100BF00BF00BF016841F0200193
:1022D0000160016841F480710160016941F400719D
:1022E0000161016941F480710161016841F02001DF
:1022F00001603921C0F8FC13016941F0200101613E
:1023000000BF00BF00BF016841F02001016001680B
:1023100041F480710160C0F8FC23016941F02001A3
:10232000016100BF00BF00BF016841F020010160F2
:10233000016841F480710160016941F4007101613B
:10234000016941F480710161016841F0200101607F
:102350003A21C0F8FC13016941F02001016100BF7E
:1023600000BF00BF016841F020010160016841F435
:1023700080710160C0F8FC33016941F02001016106
:1023800000BF00BF00BF016841F02001016001688B
:1023900041F480710160016941F4007101610169DA
:1023A00041F480710161016841F0200101603B212D
:1023B000C0F8FC13016941F02001016100BF00BFBA
:1023C00000BF016841F020010160016841F48071A3
:1023D0000160C0F8FCC3016941F02001016100BF48
:1023E00000BF00BF016841F020010160016841F4B5
:1023F00080710160016941F400710161016941F47A
:1024000080710161016841F0200101603C21C0F848
:10241000FC13016941F02001016100BF00BF00BF52
:10242000016841F020010160016841F480710160A0
:10243000C0F8FC23016941F02001016100BF00BF29
:1024400000BF016841F020010160016841F4807122
:102450000160016941F400710161016941F4807119
:102460000161016841F0200101603D21C0F8FC13C9
:10247000016941F02001016100BF00BF00BF016898
:1024800041F020010160016841F4807101604FF466
:10249000A051C0F8FC13016941F02001016100BFA7
:1024A00000BF00BF016841F020010160016841F4F4
:1024B00080710160016941F400710161016941F4B9
:1024C00080710161016841F0200101609221C0F832
:1024D000FC13016941F02001016100BF00BF00BF92
:1024E000016841F020010160016841F480710160E0
:1024F0004FF40071C0F8FC13016941F02001016143
:1025000000BF00BF00BF016841F020010160016809
:1025100041F480710160016941F400710161016958
:1025200041F480710161016841F020010160932153
:10253000C0F8FC13016941F02001016100BF00BF38
:1025400000BF016841F020010160016841F4807121
:102550000160C0F8FC23016941F02001016100BF66
:1025600000BF00BF016841F020010160016841F433
:1025700080710160016941F400710161016941F4F8
:1025800080710161016841F0200101609021C0F873
:10259000FC13016941F02001016100BF00BF00BFD1
:1025A000016841F020010160016841F4807101601F
:1025B00040F60D01C0F8FC13016941F020010161F2
:1025C00000BF00BF00BF016841F020010160016849
:1025D00041F480710160016941F400710161016998
:1025E00041F480710161016841F020010160C0F88F
:1025F000FCC3016941F02001016100BF00BF00BFC1
:10260000016841F020010160016841F480710160BE
:1026100041F21801C0F8FC13016941F02001016189
:1026200000BF00BF00BF016841F0200101600168E8
:1026300041F480710160016941F400710161016937
:1026400041F480710161016841F0200101600721BE
:10265000C0F8FC13016941F02001016100BF00BF17
:1026600000BF016841F020010160016841F4807100
:10267000016040F27311C0F8FC13016941F02001C0
:10268000016100BF00BF00BF016841F0200101608F
:10269000016841F480710160704700002DE9F04F3E
:1026A00081B040F21844C4F6000420694FF01209CA
:1026B00040F4007020612069002540F480702061A2
:1026C0002068112640F020002060E320C4F8FC03BD
:1026D00020694FF0130B40F02000206100BF00BFC5
:1026E00000BF2068102740F02000206020684FF0D5
:1026F000070840F48070206043F20800C4F8FC032F
:10270000206940F02000206100BF00BF00BF2068AA
:1027100040F020002060206840F480702060206934
:1027200040F400702061206940F4807020612068CE
:1027300040F020002060E720C4F8FC03206940F04E
:102740002000206100BF00BF00BF206840F02000D3
:102750002060206840F480702060C4F8FC932069F9
:1027600040F02000206100BF00BF00BF206840F0A3
:1027700020002060206840F480702060206940F4D0
:1027800000702061206940F480702061206840F072
:1027900020002060EF20C4F8FC03206940F02000F6
:1027A000206100BF00BF00BF206840F02000206013
:1027B000206840F48070206041F23120C4F8FC03AE
:1027C000206940F02000206100BF00BF00BF2068EA
:1027D00040F020002060206840F480702060206974
:1027E00040F400702061206940F48070206120680E
:1027F00040F0200020600120C4F8FC03206940F074
:102800002000206100BF00BF00BF206840F0200012
:102810002060206840F480702060C4F8FC53206978
:1028200040F02000206100BF00BF00BF206840F0E2
:1028300020002060206840F480702060206940F40F
:1028400000702061206940F480702061206840F0B1
:10285000200020600220C4F8FC03206940F0200022
:10286000206100BF00BF00BF206840F02000206052
:10287000206840F4807020604FF4E060C4F8FC03EE
:10288000206940F02000206100BF00BF00BF206829
:1028900040F020002060206840F4807020602069B3
:1028A00040F400702061206940F48070206120684D
:1028B00040F0200020600320C4F8FC03206940F0B1
:1028C0002000206100BF00BF00BF206840F0200052
:1028D0002060206840F48070206041F23000C4F82D
:1028E000FC03206940F02000206100BF00BF00BF52
:1028F000206840F020002060206840F48070206054
:10290000206940F400702061206940F480702061EB
:10291000206840F0200020600420C4F8FC032069F7
:1029200040F02000206100BF00BF00BF206840F0E1
:1029300020002060206840F480702060C4F8FC53C0
:10294000206940F02000206100BF00BF00BF206868
:1029500040F020002060206840F4807020602069F2
:1029600040F400702061206940F48070206120688C
:1029700040F0200020600820C4F8FC03206940F0EB
:102980002000206100BF00BF00BF206840F0200091
:102990002060206840F48070206040F20720C4F876
:1029A000FC03206940F02000206100BF00BF00BF91
:1029B000206840F020002060206840F48070206093
:1029C000206940F400702061206940F4807020612B
:1029D000206840F0200020600920C4F8FC03206932
:1029E00040F02000206100BF00BF00BF206840F021
:1029F00020002060206840F480702060C4F8FC5300
:102A0000206940F02000206100BF00BF00BF2068A7
:102A100040F020002060206840F480702060206931
:102A200040F400702061206940F4807020612068CB
:102A300040F0200020600A20C4F8FC03206940F028
:102A40002000206100BF00BF00BF206840F02000D0
:102A50002060206840F480702060C4F8FC53206936
:102A600040F02000206100BF00BF00BF206840F0A0
:102A700020002060206840F480702060206940F4CD
:102A800000702061206940F480702061206840F06F
:102A9000200020600C20C4F8FC03206940F02000D6
:102AA000206100BF00BF00BF206840F02000206010
:102AB000206840F480702060C4F8FC53206940F026
:102AC0002000206100BF00BF00BF206840F0200050
:102AD0002060206840F480702060206940F400701D
:102AE0002061206940F480702061206840F020005F
:102AF00020600D20C4F8FC03206940F02000206114
:102B000000BF00BF00BF206840F0200020602068A8
:102B100040F480702060C4F8FC53206940F020002D
:102B2000206100BF00BF00BF206840F0200020608F
:102B3000206840F480702060206940F400702061BB
:102B4000206940F480702061206840F020002060FF
:102B50000F20C4F8FC03206940F02000206100BF72
:102B600000BF00BF206840F020002060206840F4D3
:102B700080702060C4F8FC53206940F02000206180
:102B800000BF00BF00BF206840F020002060206828
:102B900040F480702060206940F40070206120695A
:102BA00040F480702061206840F0200020601020F8
:102BB000C4F8FC03206940F02000206100BF00BF82
:102BC00000BF206840F020002060206840F4807042
:102BD0002060C4F8FC53206940F02000206100BF51
:102BE00000BF00BF206840F020002060206840F453
:102BF00080702060206940F400702061206940F4FA
:102C000080702061206840F020002060C4F8FC63E0
:102C1000206940F02000206100BF00BF00BF206895
:102C200040F020002060206840F480702060072081
:102C3000C4F8FC03206940F02000206100BF00BF01
:102C400000BF206840F020002060206840F48070C1
:102C50002060206940F400702061206940F4807099
:102C60002061206840F020002060C4F8FC932069B7
:102C700040F02000206100BF00BF00BF206840F08E
:102C800020002060206840F480702060C4F8FC536D
:102C9000206940F02000206100BF00BF00BF206815
:102CA00040F020002060206840F48070206020699F
:102CB00040F400702061206940F480702061206839
:102CC00040F020002060C4F8FCB3206940F02000F0
:102CD000206100BF00BF00BF206840F020002060DE
:102CE000206840F480702060C4F8FC53206940F0F4
:102CF0002000206100BF00BF00BF206840F020001E
:102D00002060206840F480702060C820FDF788FBB8
:102D100020694FF0320A40F400702061206940F4CD
:102D200080702061206840F020002060C4F8FC73AF
:102D30002069102740F02000206100BF00BF00BFC5
:102D4000206840F020002060206840F480702060FF
:102D500041F29060C4F8FC03206940F0200020613B
:102D600000BF00BF00BF206840F020002060206846
:102D700040F480702060206940F400702061206978
:102D800040F480702061206840F020002060C4F88A
:102D9000FC63206940F02000206100BF00BF00BF3D
:102DA000206840F020002060206840F4807020609F
:102DB00040F22720C4F8FC03206940F02000206185
:102DC00000BF00BF00BF206840F0200020602068E6
:102DD00040F4807020603220FDF722FB206940F42F
:102DE00000702061206940F480702061206840F00C
:102DF00020002060C4F8FC93206940F0200020618E
:102E000000BF00BF00BF206840F0200020602068A5
:102E100040F4807020601D20C4F8FC03206940F05D
:102E20002000206100BF00BF00BF206840F02000EC
:102E30002060206840F4807020603220FDF7F0FAB6
:102E4000206940F400702061206940F480702061A6
:102E5000206840F020002060C4F8FCB3206940F0F6
:102E60002000206100BF00BF00BF206840F02000AC
:102E70002060206840F4807020604FF40060C4F847
:102E8000FC03206940F02000206100BF00BF00BFAC
:102E9000206840F020002060206840F480702060AE
:102EA000206940F400702061206940F48070206146
:102EB000206840F0200020602920C4F8FC0320692D
:102EC00040F02000206100BF00BF00BF206840F03C
:102ED00020002060206840F4807020601420C4F836
:102EE000FC03206940F02000206100BF00BF00BF4C
:102EF000206840F020002060206840F4807020604E
:102F0000206940F400702061206940F480702061E5
:102F1000206840F0200020602B20C4F8FC032069CA
:102F200040F02000206100BF00BF00BF206840F0DB
:102F300020002060206840F4807020600B20C4F8DE
:102F4000FC03206940F02000206100BF00BF00BFEB
:102F5000206840F020002060206840F480702060ED
:102F60003220FDF75DFA2069032140F400702061F2
:102F70002069072240F480702061206840F0200022
:102F800020602020C4F8FC03206940F0200020616C
:102F900000BF00BF00BF206840F020002060206814
:102FA00040F480702060C4F8FC53206940F0200099
:102FB000206100BF00BF00BF206840F020002060FB
:102FC000206840F480702060206940F40070206127
:102FD000206940F480702061206840F0200020606B
:102FE0002120C4F8FC03206940F02000206100BFCC
:102FF00000BF00BF206840F020002060206840F43F
:1030000080702060C4F8FC53206940F020002061EB
:1030100000BF00BF00BF206840F020002060206893
:1030200040F480702060206940F4007020612069C5
:1030300040F480702061206840F020002060302043
:10304000C4F8FC03206940F02000206100BF00BFED
:1030500000BF206840F020002060206840F48070AD
:103060002060C4F8FC83206940F02000206100BF8C
:1030700000BF00BF206840F020002060206840F4BE
:1030800080702060206940F400702061206940F465
:1030900080702061206840F0200020603120C4F85A
:1030A000FC03206940F02000206100BF00BF00BF8A
:1030B000206840F020002060206840F4807020608C
:1030C00040F20770C4F8FC03206940F02000206142
:1030D00000BF00BF00BF206840F0200020602068D3
:1030E00040F480702060206940F400702061206905
:1030F00040F480702061206840F020002060C4F817
:10310000FCA3206940F02000206100BF00BF00BF89
:10311000206840F020002060206840F4807020602B
:103120000620C4F8FC03206940F02000206100BFA5
:1031300000BF00BF206840F020002060206840F4FD
:1031400080702060206940F400702061206940F4A4
:1031500080702061206840F0200020603520C4F895
:10316000FC03206940F02000206100BF00BF00BFC9
:10317000206840F020002060206840F480702060CB
:1031800040F20470C4F8FC03206940F02000206184
:1031900000BF00BF00BF206840F020002060206812
:1031A00040F480702060206940F400702061206944
:1031B00040F480702061206840F0200020603620BC
:1031C000C4F8FC03206940F02000206100BF00BF6C
:1031D00000BF206840F020002060206840F480702C
:1031E000206041F60470C4F8FC03206940F0200020
:1031F000206100BF00BF00BF206840F020002060B9
:10320000206840F480702060206940F400702061E4
:10321000206940F480702061206840F02000206028
:103220003720C4F8FC03206940F02000206100BF73
:1032300000BF00BF206840F020002060206840F4FC
:10324000807020600420C4F8FC03206940F0200056
:10325000206100BF00BF00BF206840F02000206058
:10326000206840F480702060206940F40070206184
:10327000206940F480702061206840F020002060C8
:103280003820C4F8FC03206940F02000206100BF12
:1032900000BF00BF206840F020002060206840F49C
:1032A00080702060C4F8FC53206940F02000206149
:1032B00000BF00BF00BF206840F0200020602068F1
:1032C00040F480702060206940F400702061206923
:1032D00040F480702061206840F020002060392098
:1032E000C4F8FC03206940F02000206100BF00BF4B
:1032F00000BF206840F020002060206840F480700B
:10330000206040F20670C4F8FC03206940F0200001
:10331000206100BF00BF00BF206840F02000206097
:10332000206840F480702060206940F400702061C3
:10333000206940F480702061206840F02000206007
:103340003C20C4F8FC03206940F02000206100BF4D
:1033500000BF00BF206840F020002060206840F4DB
:103360008070206040F20170C4F8FC03206940F0D6
:103370002000206100BF00BF00BF206840F0200097
:103380002060206840F480702060206940F4007064
:103390002061206940F480702061206840F02000A6
:1033A00020603D20C4F8FC03206940F0200020612B
:1033B00000BF00BF00BF206840F0200020602068F0
:1033C00040F4807020600F20C4F8FC03206940F0B6
:1033D0002000206100BF00BF00BF206840F0200037
:1033E0002060206840F480702060206940F4007004
:1033F0002061206940F480702061206840F0200046
:1034000020605020C4F8FC03206940F020002061B7
:1034100000BF00BF00BF206840F02000206020688F
:1034200040F480702060C4F8FC53206940F0200014
:10343000206100BF00BF00BF206840F02000206076
:10344000206840F480702060206940F400702061A2
:10345000206940F480702061206840F020002060E6
:103460005120C4F8FC03206940F02000206100BF17
:1034700000BF00BF206840F020002060206840F4BA
:1034800080702060EF20C4F8FC03206940F0200029
:10349000206100BF00BF00BF206840F02000206016
:1034A000206840F480702060206940F40070206142
:1034B000206940F480702061206840F02000206086
:1034C0005220C4F8FC03206940F02000206100BFB6
:1034D00000BF00BF206840F020002060206840F45A
:1034E00080702060C4F8FC53206940F02000206107
:1034F00000BF00BF00BF206840F0200020602068AF
:1035000040F480702060206940F4007020612069E0
:1035100040F480702061206840F02000206053203B
:10352000C4F8FC03206940F02000206100BF00BF08
:1035300000BF206840F020002060206840F48070C8
:10354000206040F23F10C4F8FC03206940F02000E6
:10355000206100BF00BF00BF206840F02000206055
:10356000206840F480702060206940F40070206181
:10357000206940F480702061206840F020002060C5
:103580006020C4F8FC03206940F02000206100BFE7
:1035900000BF00BF206840F020002060206840F499
:1035A000807020604FF41C50C4F8FC03206940F088
:1035B0002000206100BF00BF00BF206840F0200055
:1035C0002060206840F480702060206940F4007022
:1035D0002061206940F480702061206840F0200064
:1035E00020606120C4F8FC03206940F020002061C5
:1035F00000BF00BF00BF206840F0200020602068AE
:1036000040F4807020600120C4F8FC03206940F081
:103610002000206100BF00BF00BF206840F02000F4
:103620002060206840F480702060206940F40070C1
:103630002061206940F480702061206840F0200003
:1036400020606A20C4F8FC03206940F0200020615B
:1036500000BF00BF00BF206840F02000206020684D
:1036600040F480702060C4F8FC53206940F02000D2
:10367000206100BF00BF00BF206840F02000206034
:10368000206840F480702060206940F40070206160
:10369000206940F480702061206840F020002060A4
:1036A0008020C4F8FC03206940F02000206100BFA6
:1036B00000BF00BF206840F020002060206840F478
:1036C00080702060C4F8FC53206940F02000206125
:1036D00000BF00BF00BF206840F0200020602068CD
:1036E00040F480702060206940F4007020612069FF
:1036F00040F480702061206840F02000206081202C
:10370000C4F8FC03206940F02000206100BF00BF26
:1037100000BF206840F020002060206840F48070E6
:103720002060C4F8FC53206940F02000206100BFF5
:1037300000BF00BF206840F020002060206840F4F7
:1037400080702060206940F400702061206940F49E
:1037500080702061206840F0200020608220C4F842
:10376000FC03206940F02000206100BF00BF00BFC3
:10377000206840F020002060206840F480702060C5
:10378000C4F8FC53206940F02000206100BF00BF56
:1037900000BF206840F020002060206840F4807066
:1037A0002060206940F400702061206940F480703E
:1037B0002061206840F0200020608320C4F8FC03D2
:1037C000206940F02000206100BF00BF00BF2068DA
:1037D00040F020002060206840F480702060C4F831
:1037E000FC53206940F02000206100BF00BF00BFF3
:1037F000206840F020002060206840F48070206045
:10380000206940F400702061206940F480702061DC
:10381000206840F0200020608420C4F8FC03206968
:1038200040F02000206100BF00BF00BF206840F0D2
:1038300020002060206840F480702060C4F8FC53B1
:10384000206940F02000206100BF00BF00BF206859
:1038500040F020002060206840F4807020602069E3
:1038600040F400702061206940F48070206120687D
:1038700040F0200020608520C4F8FC03206940F05F
:103880002000206100BF00BF00BF206840F0200082
:103890002060206840F480702060C4F8FC532069E8
:1038A00040F02000206100BF00BF00BF206840F052
:1038B00020002060206840F480702060206940F47F
:1038C00000702061206940F480702061206840F021
:1038D000200020609020C4F8FC03206940F0200004
:1038E000206100BF00BF00BF206840F020002060C2
:1038F000206840F480702060C4F8FC73206940F0B8
:103900002000206100BF00BF00BF206840F0200001
:103910002060206840F480702060206940F40070CE
:103920002061206940F480702061206840F0200010
:1039300020609220C4F8FC03206940F02000206140
:1039400000BF00BF00BF206840F02000206020685A
:1039500040F480702060C4F8FC53206940F02000DF
:10396000206100BF00BF00BF206840F02000206041
:10397000206840F480702060206940F4007020616D
:10398000206940F480702061206840F020002060B1
:103990009320C4F8FC03206940F02000206100BFA0
:1039A00000BF00BF206840F020002060206840F485
:1039B00080702060C4F8FC13206940F02000206172
:1039C00000BF00BF00BF206840F0200020602068DA
:1039D00040F480702060206940F40070206120690C
:1039E00040F480702061206840F020002060952025
:1039F000C4F8FC03206940F02000206100BF00BF34
:103A000000BF206840F020002060206840F48070F3
:103A100020604FF48870C4F8FC03206940F0200057
:103A2000206100BF00BF00BF206840F02000206080
:103A3000206840F480702060206940F400702061AC
:103A4000206940F480702061206840F020002060F0
:103A50009720C4F8FC03206940F02000206100BFDB
:103A600000BF00BF206840F020002060206840F4C4
:103A700080702060C4F8FC53206940F02000206171
:103A800000BF00BF00BF206840F020002060206819
:103A900040F480702060206940F40070206120694B
:103AA00040F480702061206840F020002060982061
:103AB000C4F8FC03206940F02000206100BF00BF73
:103AC00000BF206840F020002060206840F4807033
:103AD0002060C4F8FC53206940F02000206100BF42
:103AE00000BF00BF206840F020002060206840F444
:103AF00080702060206940F400702061206940F4EB
:103B000080702061206840F020002060C4F8FC1321
:103B1000206940F02000206100BF00BF00BF206886
:103B200040F020002060206840F48070206041F266
:103B30001800C4F8FC03206940F02000206100BF99
:103B400000BF00BF206840F020002060206840F4E3
:103B500080702060206940F400702061206940F48A
:103B600080702061206840F020002060C4F8FC23B1
:103B7000206940F02000206100BF00BF00BF206826
:103B800040F020002060206840F48070206040F207
:103B90007310C4F8FC03206940F02000206100BFCE
:103BA00000BF00BF206840F020002060206840F483
:103BB0008070206001B0BDE8F08F00007047000009
:103BC000FCF72ABD4EF68850CEF20000016841F4A1
:103BD000700101607047000040F2E000C2F2000096
:103BE000FDF760BB80B540F2FF7C0268C4F2000CB8
:103BF000604521DD40F60003C4F20003984224D062
:103C000043F20043C4F2010398421ED042F600433F
:103C1000C4F20103984218D043F2FF33C4F2010307
:103C200098421CDC604529DCB0F1804F3CD040F26A
:103C30000043C4F2000335E0B0F1804F05D040F2FC
:103C40000043C4F200039842E6D14B6822F07002B0
:103C50001A4343F2FF33C4F201039842E2DD44F217
:103C6000FF33C4F20103984212DC43F20043C4F272
:103C70000103984218D044F2000311E040F600031B
:103C8000C4F2000398420FD042F6004308E000BFA0
:103C900044F60003C4F20103984205D044F2004305
:103CA000C4F20103984203D1CB6822F440721A4354
:103CB0004B6922F0800E8A6843EA0E03D1F800C0F7
:103CC0000360C262A0F18042A2F596324FEAB222AE
:103CD000072AC0F828C007D8012303FA02F212F01D
:103CE000E50F1CBF096901630121416180BD00002E
:103CF000FEE700002DE9F04140F2100844F2D9043B
:103D0000C2F20008C0F6000440462146002200230B
:103D100000F064F808F12C05284621460022012312
:103D200000F05CF840F26806C2F200063046214618
:103D30000022022300F052F806F12C0738462146F3
:103D40000022032300F04AF840F28522C0F6000268
:103D50004046002100F03EF840F29922C0F60002F1
:103D60004046012100F036F840F2AD22C0F60002D4
:103D70002846022100F02EF840F2C122C0F60002CF
:103D80002846032100F026F840F2D522C0F60002B2
:103D90003046042100F01EF840F2E922C0F600028D
:103DA0003046052100F016F840F2FD22C0F6000270
:103DB0003846062100F00EF8404600F02BF8284661
:103DC00000F028F8304600F025F83846BDE8F0410C
:103DD00000F020B800EB8100C2607047F0B581B000
:103DE0000E462C211C4615460746FCF718FA802083
:103DF000B8702046BE60B047F9783C7101F03F01D1
:103E000041EAC01005F0010140EA8110F87001B0EC
:103E1000F0BD000040F2DC01C2F200010A68AAB164
:103E2000134600BF834204BF4FF0FF3070479B6AC8
:103E300063B183420ED09B6A43B183420AD09B6A2E
:103E400023B1834206D09B6A002BEBD182620860CB
:103E5000002070474FF0FF3070470000F0B581B090
:103E600040F2DC00C2F200000468002C00F0F08098
:103E700000250526012704E0E070A46A002C00F06C
:103E8000E780A16820798847E278510702D021882D
:103E900001312180B0EBD21F02D102F0C7010EE048
:103EA00007EBD20101F0070302F0C70141EAC301A9
:103EB000032BE17004D302F0470141EAC011E17025
:103EC00001F00700052805D8DFE800F0081E345887
:103ED000046600BF01F0F800CEE700BFA378C8B2C7
:103EE000C1F38012B2EBD01F03F00F0066D1E2687D
:103EF000A0701AB120469047A078E17800F0F00059
:103F000001302580A07043E0C8B2C1F38012B2EB4B
:103F1000D01F57D12088C928AFD3A078226A66F372
:103F20001F10A07012B120469047E17801F0F80010
:103F30000530A1E7C8B2C1F38012B2EBD01F4FD158
:103F4000A078E16800F00F00A07011B1204688470A
:103F5000A07800F00F010F2906D0411C01F00F01DD
:103F600000F0F0000844A070616909B1204688475C
:103F7000E078258000F0F80003307DE7C8B2C1F397
:103F80008012B2EBD01F3DD120883D28FFF475AFE1
:103F900001F0F80001306FE7A378C8B2C1F38012D6
:103FA000B2EBD01F03F00F003ED1616A60300029F0
:103FB000A0703FF462AF204688475EE78030A07073
:103FC0005BE700BFA078226967F31F10A07012B1F1
:103FD00020469047E17801F0F800258002304BE759
:103FE00020883D28FFF449AFA07800F00F00022898
:103FF00028D001287FF46EAFA2693030A070CAB912
:1040000068E700BFA078216967F31F10A07009B1AD
:104010002046884720883B2810D8E078258000F08B
:10402000F800023028E700BF22691030002AA07093
:104030003FF450AF20469047E1784BE7E07800F03E
:10404000F80019E7E2694030002AA070F2D141E798
:1040500001B0F0BD94B0FCF7EDFA002400200C9400
:10406000CDE90A44CDE90844FCF784FB0120069021
:104070004FF480300621079002200F9155210D90BA
:104080000325CDE91010CDE9120006A80E95FCF726
:1040900099FD28B1EFF3108072B600BFFEE700BFB4
:1040A0000F20CDE9010501A80421CDE903440594C1
:1040B000FCF7FEFB20B1EFF3108072B6FEE700BF05
:1040C000FDF7F8FCFDF742FDFFF714FEFDF7DAFB04
:1040D000FCF728F9FEE70000032884BF00207047A2
:1040E000DFE800F002180A1240F20040C4F60000B7
:1040F0000121FCF77FBA00BF40F20040C4F6000087
:104100000421FCF777BA00BF4FF090400121FCF783
:1041100071BA00BF40F20040C4F600000221FCF773
:1041200069BA00000FB4084B10B504A902AA03989D
:1041300000F01CF8044602A9002000F0B8F920465F
:1041400010BC5DF814FB0000AF44000802E008C892
:10415000121F08C1002AFAD170477047002001E001
:1041600001C1121F002AFBD1704700002DE9FF4F4B
:104170008BB088460546002606E025280BD0DDE9F1
:104180000D1290476D1C761C28780028F5D10FB0D1
:104190003046BDE8F08F0024A146A2460122AE4978
:1041A00000E0044315F8013F203B02FA03F0084207
:1041B000F7D128782A2810D06FF02F022878A0F1A4
:1041C0003001092915D809EB890102EB410144F0BE
:1041D000020400EB01096D1CF0E758F8041B5FEACC
:1041E000010903D544F40054C9F1000944F0020464
:1041F0006D1C28782E2817D115F8010F44F00404FF
:104200002A280ED06FF02F022878A0F1300109295A
:104210000AD80AEB8A0102EB410100EB010A6D1C8E
:10422000F2E758F804AB6D1C28786C280FD006DC38
:104230004C2817D068280DD06A2814D104E07428BF
:1042400010D07A280FD10DE044F400140AE044F4B1
:10425000801401E044F440146978814202D104F5ED
:1042600080146D1C6D1C2878692865D006DC002838
:104270008DD0632827D0642806D15DE06E2808D051
:1042800073282AD0752877D0DDE90D129047761C67
:10429000E0E0C4F30250022809D003280DD0D8F87A
:1042A000001004280DD00E6008F10408D2E0D8F800
:1042B0000010F217C1E90062F6E7D8F800100E808E
:1042C000F2E70E70F0E718F8041B8DF800100020DC
:1042D0008DF80100EB46012003E058F804BB4FF0D5
:1042E000FF3061074FF0000701D40AE07F1C5745FB
:1042F0000DDA8742FADB1BF807100029F6D106E039
:104300007F1C8742FCDB1BF807100029F8D1DDE990
:104310000D23A9EB07008146214600F0B1F8304497
:10432000C61904E0DDE90D121BF8010B90477F1E52
:10433000F8D22146484688E058F8040BC4F30251ED
:104340004FF00A0B032900D100B2042900D140B27A
:10435000002802DA40422D2102E0210505D52B215B
:104360008DF82410012104E006E0E10710D020219F
:10437000F6E708AF089113E058F8040BC4F30251B4
:104380004FF00A0B032900D180B2042900D1C0B23A
:104390000021EEE75946FBF74DFF303107F8011DCC
:1043A0000028F7D1ADEB070000F1200B600702D524
:1043B00024F4803401E04FF0010ADA4502DDAAEB73
:1043C0000B0000E00020824600EB0B01089801443E
:1043D000A9EB01000A90E00306D4DDE90D23214694
:1043E0000A9800F04DF806444FF0000908E009A9CA
:1043F00011F80900DDE90D12904709F10109761C59
:1044000008998945F3DBE0030CD5DDE90D2321464E
:104410000A9800F035F8064404E0DDE90D1230207A
:104420009047761CBAF10001AAF1010AF5DC05E01B
:10443000DDE90D1217F8010B9047761CBBF1000166
:10444000ABF1010BF4DC0A982146DDE90D2300F005
:1044500005F806446D1C97E6092801002DE9F04196
:10446000044600251E461746880404D405E0394654
:104470002020B0476D1C641EF9D52846BDE8F081A8
:104480002DE9F041044600251E469046C80301D59B
:10449000302700E02027880404D505E0414638464F
:1044A000B0476D1C641EF9D52846BDE8F0810A6846
:1044B000531C0B60107070470000000000000000EB
:1044C00001020304060708090000000000000000C4
:1044D00000000000000000000000000000000000DC
:1044E00000000000000000000000000000000000CC
:1044F0000000000000000000000080018001800139
:1045000080018001800180018001800180018001A3
:104510008001800100000000800180010000000097
:10452000000000000000000000000000CC00CC00F3
:10453000CC00CC00CC00CC0000000000000000004B
:10454000000000000000000000000000000000006B
:10455000000000000000000000000000000000005B
:1045600000000000600C600C600C30063006FE1F7E
:10457000FE1F300638071803FE1FFE1F180318031E
:104580008C018C018C01000000008000E003F80F1A
:104590009C0E8C1C8C188C009800F801E007800E93
:1045A000801C8C188C189C18B80CF00FE00380004D
:1045B00080000000000000000000000000000E1855
:1045C0001B0C110C11061106110311039B018E0126
:1045D000C038C06C60446044304430441844186CA7
:1045E0000C380000000000000000E001F003380774
:1045F000180618063003F001F000F8009C310E3365
:10460000061E061C061C063FFC73F021000000007D
:104610000000000000000000000000000C000C0082
:104620000C000C000C000C0000000000000000005A
:10463000000000000000000000000000000000007A
:1046400000000000000000000000000200038001E4
:10465000C000C0006000600030003000300030005A
:10466000300030003000300060006000C000C0004A
:104670008001000300020000000020006000C00074
:10468000800180010003000300060006000600060A
:1046900000060006000600060003000380018001FA
:1046A000C0006000200000000000000000000000CA
:1046B00000000000C000C000D806F807E001300389
:1046C00038070000000000000000000000000000AB
:1046D00000000000000000000000000000000000DA
:1046E0000000000080018001800180018001FC3F0A
:1046F000FC3F8001800180018001800100000000FA
:1047000000000000000000000000000000000000A9
:104710000000000000000000000000000000000099
:104720000000000000000000000080018001000186
:1047300000018000000000000000000000000000F8
:104740000000000000000000000000000000000069
:10475000E007E0070000000000000000000000008B
:104760000000000000000000000000000000000049
:104770000000000000000000000000000000000039
:1047800000000000000000000000C000C0000000A9
:1047900000000000000000000000000C000C0006FB
:1047A000000600060003000300038003800180016F
:1047B0008001C000C000C000600060000000000078
:1047C00000000000000000000000E003F007380EC9
:1047D000180C0C180C180C180C180C180C180C18B9
:1047E0000C180C18180C380EF007E003000000003D
:1047F0000000000000000000000000018001C00176
:10480000F001980188018001800180018001800110
:104810008001800180018001800180010000000092
:1048200000000000000000000000E003F80F180C7A
:104830000C180C1800180018000C0006000380016A
:10484000C000600030001800FC1FFC1F00000000CA
:1048500000000000000000000000E001F807180E52
:104860000C0C0C0C000C0006C003C007000C001858
:1048700000180C180C18180CF807E00300000000D2
:1048800000000000000000000000000C000E000FFF
:10489000000F800DC00C600C600C300C180C0C0C60
:1048A000FC3FFC3F000C000C000C000C0000000062
:1048B00000000000000000000000F80FF80F1800D2
:1048C00018000C00EC03FC071C0E001C001800185C
:1048D00000180C181C0C180EF807E003000000006C
:1048E00000000000000000000000C007F00F381CAE
:1048F000181818000C00CC03EC0F3C0E1C1C0C18F4
:104900000C180C18181C380EF007E003000000000B
:1049100000000000000000000000FC1FFC1F000C55
:1049200000060006000380038001C001C000E00013
:1049300060006000700030003000300000000000B7
:1049400000000000000000000000E003F007380E47
:10495000180C180C180C3806F007F007180C0C1877
:104960000C180C180C18380CF80FE00300000000AD
:1049700000000000000000000000E003F007380E17
:104980001C0C0C180C180C181C1C381EF81BE019F9
:104990000018000C000C1C0EF807F00100000000CD
:1049A0000000000000000000000000000000000007
:1049B00000000000800180010000000000000000F5
:1049C00000000000000000008001800100000000E5
:1049D00000000000000000000000000000000000D7
:1049E00000000000800180010000000000000000C5
:1049F00000000000000000008001800100010001B3
:104A00008000000000000000000000000000000026
:104A100000000000000000000010001C800FE003F8
:104A2000F8001800F800E003800F001C00100000E0
:104A30000000000000000000000000000000000076
:104A40000000000000000000F81F0000000000004F
:104A5000F81F00000000000000000000000000003F
:104A60000000000000000000000000000000000046
:104A7000000000000000000008003800F001C0073E
:104A8000001F0018001FC007F001380008000000D8
:104A900000000000000000000000E003F80F180C08
:104AA0000C180C180018000C000600038001C00050
:104AB000C000C00000000000C000C00000000000F6
:104AC000000000000000000000000000E0071818CF
:104AD0000420C229224A11440944094409440922F4
:104AE0001113E20C024004201818E0070000000037
:104AF0000000000000000000000080038003C006EA
:104B0000C006C006600C600C301830183018F83F32
:104B1000F83F1C700C600C6006C006C0000000006E
:104B200000000000000000000000FC03FC0F0C0C63
:104B30000C180C180C180C0CFC07FC0F0C180C3083
:104B40000C300C300C300C18FC1FFC07000000006F
:104B500000000000000000000000C007F01F38380F
:104B60001C300C70066006000600060006000600F9
:104B7000060006600C701C30F01FE007000000000B
:104B800000000000000000000000FE03FE0F060E03
:104B90000618061806300630063006300630063095
:104BA000063006180618060EFE0FFE030000000071
:104BB00000000000000000000000FC3FFC3F0C0073
:104BC0000C000C000C000C00FC1FFC1F0C000C0067
:104BD0000C000C000C000C00FC3FFC3F000000002F
:104BE00000000000000000000000F83FF83F18003F
:104BF0001800180018001800F81FF81F18001800F7
:104C00001800180018001800180018000000000014
:104C100000000000000000000000E00FF83F3C78BA
:104C20000E6006E007C00300030003FE03FE03C09E
:104C300007C006C00EC03CF0F83FE00F00000000C7
:104C4000000000000000000000000C300C300C30B0
:104C50000C300C300C300C30FC3FFC3F0C300C3076
:104C60000C300C300C300C300C300C3000000000DC
:104C700000000000000000000000800180018001B1
:104C8000800180018001800180018001800180011C
:104C9000800180018001800180018001000000000E
:104CA00000000000000000000000000600060006F2
:104CB00000060006000600060006000600060006C4
:104CC0000006180618063807F003E001000000008F
:104CD0000000000000000000000006300618060C6E
:104CE000060606038601C60066007600DE008E0119
:104CF00006030606060C06180630066000000000D3
:104D0000000000000000000000001800180018005B
:104D100018001800180018001800180018001800D3
:104D20001800180018001800F81FF81F00000000F5
:104D3000000000000000000000000EE01EF01EF069
:104D40001EF036D836D836D836D866CC66CC66CC87
:104D5000C6C6C6C6C6C6C6C686C386C30000000091
:104D6000000000000000000000000C301C303C304F
:104D70003C306C306C30CC30CC308C310C330C335C
:104D80000C360C360C3C0C3C0C380C30000000008F
:104D900000000000000000000000E007F81F1C38C1
:104DA0000E70066003C003C003C003C003C003C08D
:104DB00003C006600E701C38F81FE00700000000FA
:104DC00000000000000000000000FC0FFC1F0C3879
:104DD0000C300C300C300C300C18FC1FFC070C0095
:104DE0000C000C000C000C000C000C00000000007B
:104DF00000000000000000000000E007F81F1C3861
:104E00000E70066003E003C003C003C003C003C00C
:104E100007E006630E3F1C3CF83FE0F700C00000CF
:104E200000000000000000000000FE0FFE1F06381A
:104E30000630063006300638FE1FFE07060306065B
:104E4000060C061806180630063006600000000042
:104E500000000000000000000000E003F80F1C0C40
:104E60000C180C180C001C00F803E00F001E003892
:104E7000063006300E301C1CF80FE0070000000062
:104E800000000000000000000000FE7FFE7F8001A7
:104E9000800180018001800180018001800180010A
:104EA00080018001800180018001800100000000FC
:104EB000000000000000000000000C300C300C303E
:104EC0000C300C300C300C300C300C300C300C3002
:104ED0000C300C300C301818F81FE00700000000F0
:104EE00000000000000000000000036006300630F3
:104EF00006300C180C180C18180C180C380E30064C
:104F00003006700760036003C001C00100000000AC
:104F1000000000000000000000000360C361C361E6
:104F2000C3616633663366336633663366336C1B40
:104F30006C1B6C1B2C1A3C1E380E380E0000000037
:104F4000000000000000000000000FE00C701830AE
:104F50003018700C600EC00780038003C003E006A9
:104F6000700C301C18180C300E6007E000000000B8
:104F70000000000000000000000003C006600C30CC
:104F80001C383818300C6006E007C003800180012F
:104F9000800180018001800180018001000000000B
:104FA00000000000000000000000FC7FFC7F0060AB
:104FB00000300018000C000600038001C0006000F3
:104FC000300018000C000600FE7FFE7F000000008D
:104FD00000000000000000000000E003E0036000AB
:104FE00060006000600060006000600060006000C1
:104FF00060006000600060006000600060006000B1
:105000006000E003E00300000000300030006000BA
:1050100060006000C000C000C000C00180018001CD
:1050200080010003000300030006000600000000EA
:1050300000000000000000000000E003E0030003A7
:105040000003000300030003000300030003000348
:105050000003000300030003000300030003000338
:105060000003E003E003000000000000C001C001F5
:1050700060036003600330063006180C180C000053
:105080000000000000000000000000000000000020
:105090000000000000000000000000000000000010
:1050A0000000000000000000000000000000000000
:1050B00000000000000000000000FFFFFFFF0000F4
:1050C000000000000000000000000C000C000C00BC
:1050D0000C000C000C0000000000000000000000AC
:1050E00000000000000000000000000000000000C0
:1050F00000000000000000000000000000000000B0
:1051000000000000F003F8071C0C0C0C000FF00F5F
:10511000F80C0C0C0C0C1C0FF80FF0180000000021
:105120000000000000000000000018001800180037
:1051300018001800D803F80F380C18181818181889
:10514000181818181818380CF80FD80300000000A9
:10515000000000000000000000000000000000004F
:1051600000000000C003F007300E180C18001800F3
:1051700018001800180C300EF007C00300000000E3
:1051800000000000000000000000001800180018D7
:1051900000180018C01BF01F301C18181818181819
:1051A000181818181818301CF01FC01B0000000039
:1051B00000000000000000000000000000000000EF
:1051C00000000000C003F00F300C1818F81FF81F83
:1051D000180018003818301CF00FC007000000003D
:1051E00000000000000000000000800FC00FC000A1
:1051F000C000C000F007F007C000C000C000C00041
:10520000C000C000C000C000C000C000000000001E
:10521000000000000000000000000000000000008E
:1052200000000000E00DF80F180E0C0C0C0C0C0C1C
:105230000C0C0C0C0C0C180EF80FE00D000C0C0CE8
:105240001C06F807F0010000000018001800180004
:1052500018001800D807F80F381C18181818181854
:10526000181818181818181818181818000000001E
:1052700000000000000000000000C000C0000000AE
:1052800000000000C000C000C000C000C000C0009E
:10529000C000C000C000C000C000C000000000008E
:1052A00000000000000000000000C000C00000007E
:1052B00000000000C000C000C000C000C000C0006E
:1052C000C000C000C000C000C000C000C000C000DE
:1052D000C000F8007800000000000C000C000C007A
:1052E0000C000C000C0C0C060C038C01CC006C00A8
:1052F000FC009C018C030C030C060C0C000000004D
:1053000000000000000000000000C000C000C0005D
:10531000C000C000C000C000C000C000C000C0008D
:10532000C000C000C000C000C000C00000000000FD
:10533000000000000000000000000000000000006D
:10534000000000007C3CFF7EC7E383C183C183C1B2
:1053500083C183C183C183C183C183C100000000B5
:10536000000000000000000000000000000000003D
:10537000000000009807F80F381C181818181818A3
:1053800018181818181818181818181800000000FD
:10539000000000000000000000000000000000000D
:1053A00000000000C003F00F300C1818181818186F
:1053B000181818181818300CF00FC003000000005F
:1053C00000000000000000000000000000000000DD
:1053D00000000000D803F80F380C18181818181817
:1053E000181818181818380CF80FD80318001800D7
:1053F0001800180018000000000000000000000065
:1054000000000000C01BF01F301C181818181818D6
:10541000181818181818301CF01FC01B0018001896
:105420000018001800180000000000000000000034
:1054300000000000B007F0037000300030003000C2
:10544000300030003000300030003000000000003C
:10545000000000000000000000000000000000004C
:1054600000000000E003F003380E180C3800F003D1
:10547000C007000C180C380EF007E0030000000015
:105480000000000000000000000000008000C000DC
:10549000C000C000F007F007C000C000C000C0009E
:1054A000C000C000C000C000C007800700000000AE
:1054B00000000000000000000000000000000000EC
:1054C00000000000181818181818181818181818BC
:1054D000181818181818381CF01FE01900000000E0
:1054E00000000000000000000000000000000000BC
:1054F000000000000C18180C180C180C30063006B0
:105500003006600360036003C001C00100000000BA
:10551000000000000000000000000000000000008B
:1055200000000000C141C141C36163636363636301
:105530003636363636361C1C1C1C1C1C000000007F
:10554000000000000000000000000000000000005B
:10555000000000001C38381C300C6006600360033B
:10556000600360036006300C381C1C38000000002B
:10557000000000000000000000000000000000002B
:10558000000000001830301830187018600C600CE3
:10559000E00CC006C0068003800380038001800108
:1055A000C001F000700000000000000000000000DA
:1055B00000000000FC1FFC1F000C0006000380011F
:1055C000C000600030001800FC1FFC1F000000003D
:1055D0000000000000000000000000038001C00087
:1055E000C000C000C000C000C0006000600030000B
:1055F00060004000C000C000C000C000C000C0008B
:105600008001000300000000000080018001800193
:105610008001800180018001800180018001800182
:105620008001800180018001800180018001800172
:10563000800180018001000000006000C000C00106
:1056400080018001800180018001000300030006C9
:105650000003000180018001800180018001800140
:10566000C00060000000000000000000000000001A
:105670000000000000000000F010F81F080F0000FC
:10568000000000000000000000000000000000001A
:1056900000000000000000002020202020204E7587
:1056A0006D313A2530336420202020202020202016
:1056B000002020202020204E756D323A25303364A2
:1056C00020202020202020202000202020202020FA
:1056D0004E756D333A253033642020202020202061
:1056E0002020002020202020204E756D343A2530C7
:1056F0003364202020202020202020002057000874
:1057000000000020100000004C4100083057000845
:1057100010000020280500005C4100080000000087
:105720001000000001000000FFFF00000024F40052
:04000005080001D915
:00000001FF
